:040000008A15002835
:10000800FF00030E83018316D7000A08D6008A0171
:1000180070088312A2007C08A1007D08A0000C1CB7
:10002800752823080A3A03196F288316CF0A4F0840
:10003800053A031D2B288312D90A0130E400590818
:100048003C3A031D2928D00AD9018316CF0183120F
:1000580050083C3A031D3228D80AD0015808183AEB
:10006800031D3928D801D001D90133085806031DCA
:100078005B284F085006031D5B285908003A031DEA
:100088005B2883164E08023A03194F284E08033A94
:1000980003194F285B284E08033A031D55280A30D8
:1000A800CE004E08023A031D5B280B30CE008316A3
:1000B8004E080A3A031965284E080B3A03196528B1
:1000C8006F284F08033C031C6D28FE3083128600FE
:1000D8006F288312860183123C308F00AF308E0068
:1000E8000C108B1CDE2883164E08013A0319BD2814
:1000F80083122308003A031D8828061C882801302B
:10010800A300061C882885282308013A031D932884
:10011800061C93280430A300061C93289028230863
:10012800023A031DA02801308316CE000330831243
:10013800A300061CA0289D282308043A031DAB2809
:10014800061CAB280A30A300061CAB28A8282308E5
:100158000A3A031DB528061CB528A301061CB528B4
:10016800B2282730FC00F530FD00FD0BB928FC0B48
:10017800B92883164E08013A031DDD288312230887
:10018800053A031DCF2803308316CE008312A3013E
:10019800061CCF28CC282308033A031DDD28061C9B
:1001A800DD2802308316CE008312A301061CDD2849
:1001B800DA288B1083122208F0002108FC0020089E
:1001C800FD00831656088A00570E8300FF0E7F0E27
:0201D80009001C
:0401DA000000080019
:1001DE00083083120313FC002330FD00FD0BF528BD
:0601EE00FC0BF5280800DF
:1001F400103083120313FD00FD0BFE2800000800DD
:1002040083160313DD1B0929831288130B29831218
:10021400881783165D1B112983120813132983126F
:1002240008178316DD1A1929831288121B298312D1
:10023400881683165D1A2129831208122329831232
:100244000816831650182929831208152B2983129E
:1002540008118815ED2088118316DD1934298312BD
:10026400881336298312881783165D193C29831253
:1002740008133E29831208178316DD1844298312B4
:10028400881246298312881683165D184C29831216
:1002940008124E2983120816831650185429831203
:1002A40008155629831208118815ED208811831624
:0C02B400501C5E29EF205F29FA20080092
:1002C0008316031350105C08DD00022183165014BE
:0202D000080024
:1002D20083120313F8010830FC00700DF80D740846
:1002E200F80203187629F8070310F00DFC0B6E29AB
:0202F200080002
:1002F4008C29803083160313D8009F29C030D8007E
:100304009F299430D8009F29D430D8009F29803069
:10031400D8009F29831603135808013A03197B292F
:100324005808023A031980295808033A0319832903
:100334005808043A0319862989295903F0005808F2
:10034400F0077008D80050147008DD0002218316ED
:0E03540050105A08DD000221831650140800D4
:10036200C329803083160313D800D629C030D800A1
:10037200D6299430D800D629D430D800D629803056
:10038200D800D629831603135808013A0319B22953
:100392005808023A0319B7295808033A0319BA2927
:1003A2005808043A0319BD29C0295903F000580816
:1003B200F0077008D8007008DD0002218316501083
:1003C200DB015B085A07840000080319F0295B0867
:1003D2005A0784000008DC006021DB0AE22950147D
:0203E200080011
:0E03E4008316031352088A0051088200080095
:1003F20083160313DA0103305A020318072A5A0834
:100402005907840030308000DA0AFC295A0859075B
:1004120084008001DA035808003A03192B2A5A088B
:100422005907DB000A30F4005808F0006921780807
:10043200F0003030F00783165B08840070088000FB
:10044200DA030A30F4005808F000692170088316B4
:06045200D8000C2A08008E
:1004580083120313071D782A2408073A031D532A19
:1004680014308316DD00022114308316DD000221CA
:1004780014308316DD0002210A30A4000230FB008C
:100488004530FC00A930FD00FD0B482AFC0B482A2A
:10049800FB0B482A00000000071D532A502A240895
:1004A800073C0318782A071D782A10308316DD00C8
:1004B800022110308316DD00022110308316DD0082
:1004C80002210330A4020230FB004530FC00A930B1
:1004D800FD00FD0B6D2AFC0B6D2AFB0B6D2A00003D
:1004E8000000071D782A752A871D802A8316CE01E9
:1004F8008312B301CF01A301081CE12A0C30831633
:10050800DD00022124080A3A031DB32A4F083B3AAA
:10051800031D902ACF01912ACF0A4F088316D800CD
:10052800D330D900F9210230D8000930D900550854
:10053800DA007A210230D8000830D9005408DA00ED
:100548007A210230FB004530FC00A930FD00FD0B8C
:10055800AB2AFC0BAB2AFB0BAB2A00000000831272
:100568002408073A031DE12A3308183A031DBE2A56
:10057800B301BF2AB30A33088316D800D330D90091
:10058800F9210230D8000630D9005508DA007A215E
:100598000230D8000530D9005408DA007A21023038
:1005A800FB004530FC00A930FD00FD0BD92AFC0BEF
:1005B800D92AFB0BD92A000000008312881C432B80
:1005C8000C308316DD00022124080A3A031D152B7E
:1005D8004F08003A031DF22ACF01F32ACF034F0830
:1005E8008316D800D330D900F9210230D800093059
:1005F800D9005508DA007A210230D8000830D9002D
:100608005408DA007A210230FB004530FC00A9309A
:10061800FD00FD0B0D2BFC0B0D2BFB0B0D2B000018
:10062800000083122408073A031D432B3308003ABD
:10063800031D202BB301212BB30333088316D800E5
:10064800D330D900F9210230D8000630D900550836
:10065800DA007A210230D8000530D9005408DA00CF
:100668007A210230FB004530FC00A930FD00FD0B6B
:100678003B2BFC0B3B2BFB0B3B2B0000000083169A
:080688000C30DD000221080026
:1006900083120313F801F9011030FC00710DF80DFD
:1006A000F90D7408F8027508031C750FF902031898
:1006B000602B7408F80775080318750FF907031005
:0A06C000F00DF10DFC0B4E2B0800AD
:1006CA0083120313081C902B0C308316DD000221C1
:1006DA006D08043A031D742B0430ED00752BED0AE6
:1006EA006D088316D800D330D900F9210230D8001A
:1006FA000930D9005508DA007A210230FB0045306A
:10070A00FC00A930FD00FD0B882BFC0B882BFB0B92
:10071A00882B000000008312881CBA2B0C30831629
:10072A00DD0002216D08013A031D9E2B0130ED0008
:10073A009F2BED036D088316D800D330D900F92119
:10074A000230D8000930D9005508DA007A2102307F
:10075A00FB004530FC00A930FD00FD0BB22BFC0B61
:10076A00B22BFB0BB22B000000008312871DC32B98
:0E077A008316CE018312B301CF01A301080044
:10078800013083160313D8000130D9003430DA0061
:10079800B1218312071DDF2B0230A3000230FB00BA
:1007A8000430FC00BA30FD00FD0BD82BFC0BD82B15
:1007B800FB0BD82B0000871DEF2BA3010230FB0099
:1007C8000430FC00BA30FD00FD0BE82BFC0BE82BD5
:0807D800FB0BE82B00000800F8
:1007E000831603138811081108128812081388133E
:1007F0008312881108118813081388120812EF2039
:10080000EF20EF20881608168815ED208811EF20BC
:100810008815ED208811EF208815ED208811EF2034
:1008200008128815ED208811EF208815ED20881119
:10083000881288178815ED208811EF208813081674
:100840008815ED20881108128815ED208811EF20F9
:100850008815ED20881108168815ED208811EF20E5
:1008600008128815ED2088118817081788160816B1
:0E0870008815ED208811EF2083165014080023
:10087E00F2218A110A128000840AD10A0319D20ABF
:08088E00F003031D3F2C0800DC
:100896008312031333088316D800D330D900F92105
:1008A6000230D8000530D9005408DA007A21023027
:1008B600D8000630D9005508DA007A210230D8006F
:1008C6000730D9003A30DA007A2183124F088316AE
:1008D600D800D330D900F9210230D8000930D90028
:1008E6005508DA007A210230D8000830D9005408B9
:0608F600DA007A2108007F
:1008FC00013083160313D8000130D9004430DA00DC
:10090C00B121831233088316D800D330D900F921D2
:10091C000230D8000930D9005408DA007A210230AC
:10092C00D8000A30D9005508DA007A210230D800F4
:10093C000B30D9003A30DA007A2183124F08831633
:10094C00D800D330D900F9210230D8000C30D900AE
:10095C005408DA007A210230D8000D30D90055083D
:06096C00DA007A21080008
:100A6C00233084004A3083120313F000B93083160C
:100A7C00D1000430D2003F24A03084002E308312E9
:100A8C000313F00003308316D1000530D2003F244D
:100A9C006D308400033083120313F0003130831661
:100AAC00D1000530D2003F24CE30840002308312B6
:100ABC000313F00034308316D1000530D2003F24EC
:020ACC00080020
:101000008A1136258A158B170B170B168B10831632
:1010100003130117831290161012901010149011E0
:101020003C308F00AF308E000C1083160C14013052
:101030008600033088000C30870083128601870108
:101040008A11F0238A150130DD008A1102218A15E8
:101050000C308316DD008A1102218A1501308316B7
:10106000DD008A1102218A1583122308003A031D2C
:10107000722983164E080A3A031943284E080B3A80
:1010800003194328A2284E080A3A031D5E288A1134
:101090007E248A158312871D5E288316CE010230B6
:1010A000FB000430FC00BA30FD00FD0B5528FC0BA2
:1010B0005528FB0B552800008312860183164E0825
:1010C0000B3A031DA1288A117E248A158312871DDD
:1010D000A1286D08F4001830F0008A1169218A15E2
:1010E0007008EE00EF016E083307F00000300318BF
:1010F000013E6F07F1007008EE007108EF00183034
:10110000F4000030F5008A1148238A157808F000B1
:101110007908F1007008B30002308316CE00023067
:10112000FB000430FC00BA30FD00FD0B9528FC0BE1
:101130009528FB0B9528000083128601871DA128A6
:101140009E287129831258088316D800D330D900FD
:101150008A11F9218A150130D8000130D9005130A7
:10116000DA008A11B1218A150130D8000830D9007F
:101170005408DA008A117A218A150130D800093022
:10118000D9005508DA008A117A218A150130D80071
:101190000A30D9003A30DA008A117A218A1583128E
:1011A00050088316D800D330D9008A11F9218A1546
:1011B0000130D8000B30D9005408DA008A117A21A6
:1011C0008A150130D8000C30D9005508DA008A1190
:1011D0007A218A150130D8000D30D9003A30DA0072
:1011E0008A117A218A15831259088316D800D330C0
:1011F000D9008A11F9218A150130D8000E30D900A2
:101200005408DA008A117A218A150130D8000F308B
:10121000D9005508DA008A117A218A154E08023A57
:10122000031917294E08033A031917295F290230B9
:10123000D8000130D9006530DA008A11B1218A1551
:10124000831233088316D800D330D9008A11F921CC
:101250008A150230D8000930D9005408DA008A1102
:101260007A218A150230D8000A30D9005508DA00F0
:101270008A117A218A150230D8000B30D9003A3011
:10128000DA008A117A218A1583124F088316D80052
:10129000D330D9008A11F9218A150230D8000C30D8
:1012A000D9005408DA008A117A218A150230D80050
:1012B0000D30D9005508DA008A117A218A15831277
:1012C0006408013A031D6B2901308316DD008A1181
:1012D00002218A15E401871D7129CF01B30183160C
:1012E000CE01342883160130DD008A1102218A15CF
:1012F0000C308316DD008A1102218A152308013A79
:10130000031D86298A11C4238A157E29013083167C
:10131000DD008A1102218A152308023A031D9D2946
:1013200001308316D8000230D9005A30DA008A1111
:10133000B1218A158A114B248A1583122308023A97
:10134000031DB2290F308316DD008A1102218A1590
:101350008A112C228A150C308316DD008A11022195
:101360008A159D290C308316DD008A1102218A1509
:1013700001308316DD008A1102218A152308033A01
:10138000031DCC2901308316D8000130D900BF30AD
:10139000DA008A11B1218A1583122308033A031D4A
:1013A000D5298A1165238A15CC2901308316DD00E1
:1013B0008A1102218A150C308316DD008A11022160
:1013C0008A152308043A031D202A01308316D80009
:1013D0000130D900A030DA008A11B1218A1502301B
:1013E000D8000130D900AD30DA008A11B1218A1558
:1013F0008312071D0D2A01308316CE00053083129B
:10140000A3004130FC00EE30FD00FD0B052AFC0B73
:10141000052A0000071D0D2A0A2A871D1F2AA3017D
:101420008316CE014130FC00EE30FD00FD0B162A84
:10143000FC0B162A00008312071D1F2A1B2AE12914
:1014400001308316DD008A1102218A152308053A2E
:10145000031D3B2A83164E08013A031D3B2A013027
:10146000D8000230D900B330DA008A11B1218A15D0
:101470008A114B248A1583122308053A031D8E2BEB
:1014800083164E08013A031D8E2B0F30DD008A11A2
:1014900002218A15071DA02A2408073A031D752A70
:1014A00014308316DD008A1102218A151430831648
:1014B000DD008A1102218A1514308316DD008A119D
:1014C00002218A150A30A4000230FB004530FC00DE
:1014D000A930FD00FD0B6A2AFC0B6A2AFB0B6A2A65
:1014E00000000000071D752A722A2408073C031813
:1014F000A02A071DA02A10308316DD008A110221C0
:101500008A1510308316DD008A1102218A151030E9
:101510008316DD008A1102218A150330A4020230ED
:10152000FB004530FC00A930FD00FD0B952AFC0BAB
:10153000952AFB0B952A00000000071DA02A9D2A72
:10154000871DA82A8316CE018312B301CF01A30100
:10155000081C172B0C308316DD008A1102218A1516
:1015600024080A3A031DE32A4F083B3A031DBA2A0E
:10157000CF01BB2ACF0A4F088316D800D330D90039
:101580008A11F9218A150230D8000930D90055088E
:10159000DA008A117A218A150230D8000830D90081
:1015A0005408DA008A117A218A150230FB0045308E
:1015B000FC00A930FD00FD0BDB2AFC0BDB2AFB0B3A
:1015C000DB2A0000000083122408073A031D172BB2
:1015D0003308183A031DEE2AB301EF2AB30A330881
:1015E0008316D800D330D9008A11F9218A15023028
:1015F000D8000630D9005508DA008A117A218A15F8
:101600000230D8000530D9005408DA008A117A2156
:101610008A150230FB004530FC00A930FD00FD0BAF
:101620000F2BFC0B0F2BFB0B0F2B0000000083126A
:10163000881C872B0C308316DD008A1102218A1545
:1016400024080A3A031D532B4F08003A031D2A2B86
:10165000CF012B2BCF034F088316D800D330D900EE
:101660008A11F9218A150230D8000930D9005508AD
:10167000DA008A117A218A150230D8000830D900A0
:101680005408DA008A117A218A150230FB004530AD
:10169000FC00A930FD00FD0B4B2BFC0B4B2BFB0B77
:1016A0004B2B0000000083122408073A031D872BF0
:1016B0003308003A031D5E2BB3015F2BB3033308DD
:1016C0008316D800D330D9008A11F9218A15023047
:1016D000D8000630D9005508DA008A117A218A1517
:1016E0000230D8000530D9005408DA008A117A2176
:1016F0008A150230FB004530FC00A930FD00FD0BCF
:101700007F2BFC0B7F2BFB0B7F2B00000000831635
:101710000C30DD008A1102218A153B2A0C30831619
:10172000DD008A1102218A1501308316DD008A113D
:1017300002218A1523080A3A031D0B2C0130831657
:10174000D8000230D9002530DA008A11B1218A157B
:10175000831258088316D800D330D9008A11F92192
:101760008A150230D8000430D9005408DA008A11F2
:101770007A218A150230D8000530D9005508DA00E0
:101780008A117A218A150230D8000630D9003A3001
:10179000DA008A117A218A15831250088316D8003C
:1017A000D330D9008A11F9218A150230D8000730C8
:1017B000D9005408DA008A117A218A150230D8003B
:1017C0000830D9005508DA008A117A218A150230CA
:1017D000D8000930D9003A30DA008A117A218A1506
:1017E000831259088316D800D330D9008A11F92101
:1017F0008A150230D8000B30D9005508DA008A115A
:101800007A218A150230D8000A30D9005408DA004B
:101810008A117A218A15831223080A3A031DCC2DD6
:101820000F308316DD008A1102218A15071D7E2CD8
:101830002408043A031D532C14308316DD008A114A
:1018400002218A1514308316DD008A1102218A15BF
:1018500014308316DD008A1102218A151430831694
:10186000DD008A1102218A1514308316DD008A11E9
:1018700002218A1514308316DD008A1102218A158F
:101880000A30A4000230FB004530FC00A930FD0006
:10189000FD0B482CFC0B482CFB0B482C00000000D7
:1018A000071D532C502C2408043C03187E2C071DC4
:1018B0007E2C10308316DD008A1102218A1510302B
:1018C0008316DD008A1102218A1510308316DD008F
:1018D0008A1102218A150330A4020230FB00453030
:1018E000FC00A930FD00FD0B732CFC0B732CFB0BD3
:1018F000732C00000000071D7E2C7B2C081C212D62
:101900000C308316DD008A1102218A1524080A3A58
:10191000031DB92C59083B3A031D902CD901912C79
:10192000D90A59088316D800D330D9008A11F92171
:101930008A150230D8000B30D9005508DA008A1118
:101940007A218A150230D8000A30D9005408DA000A
:101950008A117A218A150230FB004530FC00A9303B
:10196000FD00FD0BB12CFC0BB12CFB0BB12C0000CE
:10197000000083122408073A031DED2C50083B3A5F
:10198000031DC42CD001C52CD00A50088316D800E2
:10199000D330D9008A11F9218A150230D8000830D5
:1019A000D9005508DA008A117A218A150230D80048
:1019B0000730D9005408DA008A117A218A150230DA
:1019C000FB004530FC00A930FD00FD0BE52CFC0BB5
:1019D000E52CFB0BE52C0000000083122408043AE0
:1019E000031D212D5808183A031DF82CD801F92C95
:1019F000D80A58088316D800D330D9008A11F921A3
:101A00008A150230D8000530D9005508DA008A114D
:101A10007A218A150230D8000430D9005408DA003F
:101A20008A117A218A150230FB004530FC00A9306A
:101A3000FD00FD0B192DFC0B192DFB0B192D0000C2
:101A400000008312881CC52D0C308316DD008A111E
:101A500002218A1524080A3A031D5D2D5908003A0F
:101A6000031D342DD901352DD90359088316D8000B
:101A7000D330D9008A11F9218A150230D8000B30F1
:101A8000D9005508DA008A117A218A150230D80067
:101A90000A30D9005408DA008A117A218A150230F6
:101AA000FB004530FC00A930FD00FD0B552DFC0B63
:101AB000552DFB0B552D0000000083122408073A1A
:101AC000031D912D5008003A031D682DD001692D8A
:101AD000D00350088316D800D330D9008A11F921D9
:101AE0008A150230D8000830D9005508DA008A116A
:101AF0007A218A150230D8000730D9005408DA005C
:101B00008A117A218A150230FB004530FC00A93089
:101B1000FD00FD0B892DFC0B892DFB0B892D000091
:101B2000000083122408043A031DC52D5808003A0A
:101B3000031D9C2DD8019D2DD80358088316D8006D
:101B4000D330D9008A11F9218A150230D800053026
:101B5000D9005508DA008A117A218A150230D80096
:101B60000430D9005408DA008A117A218A1502302B
:101B7000FB004530FC00A930FD00FD0BBD2DFC0B2A
:101B8000BD2DFB0BBD2D0000000083160C30DD00C9
:0C1B90008A1102218A150B2C2E28CD2D65
:0209720000344F
:020974000A3443
:10097600533441344134543420344B345534523496
:0C09860055344C3455344D345534003495
:0209920000342F
:10099400503445345234493459344F34443449344E
:1009A4004B34203441344C34413452344D340034CB
:1009B40049344C3441344334203453344134413485
:0609C400543449340034F4
:0209CA000034F7
:0209CC000034F5
:0E09CE00533441344134543420343A3400342C
:0209DC000034E5
:0209DE000034E3
:1009E00049344C344B34203441344C344134523447
:0409F0004D3400344E
:0209F4000034CD
:1009F60041344C34413452344D3420343A3400348A
:100A0600543445344B342034533445344634453419
:0A0A160052344C3449344B340034A0
:0C0A200041344C34413452344D34003425
:100A2C0041344C34413452344D34203453344134F9
:080A3C00413454344934003404
:100A4400473455344E344434453420344B344134E3
:0E0A5400433420344B3445345A343F3400349C
:020A620000345E
:040A64000034003426
:020A6800003458
:020A6A00003456
:02400E004A2F37
:00000001FF
